{
  "abi": [
    {
      "inputs": [
        {
          "internalType": "bytes4",
          "name": "_selector",
          "type": "bytes4"
        }
      ],
      "name": "CannotAddFunctionToDiamondThatAlreadyExists",
      "type": "error"
    },
    {
      "inputs": [
        {
          "internalType": "bytes4[]",
          "name": "_selectors",
          "type": "bytes4[]"
        }
      ],
      "name": "CannotAddSelectorsToZeroAddress",
      "type": "error"
    },
    {
      "inputs": [
        {
          "internalType": "bytes4",
          "name": "_selector",
          "type": "bytes4"
        }
      ],
      "name": "CannotRemoveFunctionThatDoesNotExist",
      "type": "error"
    },
    {
      "inputs": [
        {
          "internalType": "bytes4",
          "name": "_selector",
          "type": "bytes4"
        }
      ],
      "name": "CannotRemoveImmutableFunction",
      "type": "error"
    },
    {
      "inputs": [
        {
          "internalType": "bytes4",
          "name": "_selector",
          "type": "bytes4"
        }
      ],
      "name": "CannotReplaceFunctionThatDoesNotExists",
      "type": "error"
    },
    {
      "inputs": [
        {
          "internalType": "bytes4",
          "name": "_selector",
          "type": "bytes4"
        }
      ],
      "name": "CannotReplaceFunctionWithTheSameFunctionFromTheSameFacet",
      "type": "error"
    },
    {
      "inputs": [
        {
          "internalType": "bytes4[]",
          "name": "_selectors",
          "type": "bytes4[]"
        }
      ],
      "name": "CannotReplaceFunctionsFromFacetWithZeroAddress",
      "type": "error"
    },
    {
      "inputs": [
        {
          "internalType": "bytes4",
          "name": "_selector",
          "type": "bytes4"
        }
      ],
      "name": "CannotReplaceImmutableFunction",
      "type": "error"
    },
    {
      "inputs": [
        {
          "internalType": "uint8",
          "name": "_action",
          "type": "uint8"
        }
      ],
      "name": "IncorrectFacetCutAction",
      "type": "error"
    },
    {
      "inputs": [
        {
          "internalType": "address",
          "name": "_initializationContractAddress",
          "type": "address"
        },
        {
          "internalType": "bytes",
          "name": "_calldata",
          "type": "bytes"
        }
      ],
      "name": "InitializationFunctionReverted",
      "type": "error"
    },
    {
      "inputs": [
        {
          "internalType": "address",
          "name": "_contractAddress",
          "type": "address"
        },
        {
          "internalType": "string",
          "name": "_message",
          "type": "string"
        }
      ],
      "name": "NoBytecodeAtAddress",
      "type": "error"
    },
    {
      "inputs": [
        {
          "internalType": "address",
          "name": "_facetAddress",
          "type": "address"
        }
      ],
      "name": "NoSelectorsProvidedForFacetForCut",
      "type": "error"
    },
    {
      "inputs": [
        {
          "internalType": "address",
          "name": "_user",
          "type": "address"
        },
        {
          "internalType": "address",
          "name": "_contractOwner",
          "type": "address"
        }
      ],
      "name": "NotContractOwner",
      "type": "error"
    },
    {
      "inputs": [
        {
          "internalType": "address",
          "name": "_facetAddress",
          "type": "address"
        }
      ],
      "name": "RemoveFacetAddressMustBeZeroAddress",
      "type": "error"
    },
    {
      "anonymous": false,
      "inputs": [
        {
          "components": [
            {
              "internalType": "address",
              "name": "facetAddress",
              "type": "address"
            },
            {
              "internalType": "enum IDiamond.FacetCutAction",
              "name": "action",
              "type": "uint8"
            },
            {
              "internalType": "bytes4[]",
              "name": "functionSelectors",
              "type": "bytes4[]"
            }
          ],
          "indexed": false,
          "internalType": "struct IDiamond.FacetCut[]",
          "name": "_diamondCut",
          "type": "tuple[]"
        },
        {
          "indexed": false,
          "internalType": "address",
          "name": "_init",
          "type": "address"
        },
        {
          "indexed": false,
          "internalType": "bytes",
          "name": "_calldata",
          "type": "bytes"
        }
      ],
      "name": "DiamondCut",
      "type": "event"
    },
    {
      "inputs": [
        {
          "internalType": "address",
          "name": "newOwner",
          "type": "address"
        }
      ],
      "name": "changeOwner",
      "outputs": [],
      "stateMutability": "nonpayable",
      "type": "function"
    },
    {
      "inputs": [
        {
          "components": [
            {
              "internalType": "address",
              "name": "facetAddress",
              "type": "address"
            },
            {
              "internalType": "enum IDiamond.FacetCutAction",
              "name": "action",
              "type": "uint8"
            },
            {
              "internalType": "bytes4[]",
              "name": "functionSelectors",
              "type": "bytes4[]"
            }
          ],
          "internalType": "struct IDiamond.FacetCut[]",
          "name": "_diamondCut",
          "type": "tuple[]"
        },
        {
          "internalType": "address",
          "name": "_init",
          "type": "address"
        },
        {
          "internalType": "bytes",
          "name": "_calldata",
          "type": "bytes"
        }
      ],
      "name": "diamondCut",
      "outputs": [],
      "stateMutability": "nonpayable",
      "type": "function"
    },
    {
      "inputs": [],
      "name": "owner",
      "outputs": [
        {
          "internalType": "address",
          "name": "",
          "type": "address"
        }
      ],
      "stateMutability": "view",
      "type": "function"
    }
  ],
  "bytecode": {
    "object": "0x608060405234801561001057600080fd5b50611100806100206000396000f3fe608060405234801561001057600080fd5b50600436106100415760003560e01c80631f931c1c146100465780638da5cb5b1461005b578063a6f9dae11461007f575b600080fd5b610059610054366004610ae6565b610092565b005b6100636100eb565b6040516001600160a01b03909116815260200160405180910390f35b61005961008d366004610b98565b610123565b61009a610137565b6100e46100a78587610c4e565b8484848080601f0160208091040260200160405190810160405280939291908181526020018383808284376000920191909152506101b092505050565b5050505050565b600061011e7fc8fcad8db84d3cc18b4c41d551ea0ee66dd599cde068d998e57d5e09332c131f546001600160a01b031690565b905090565b61012b610137565b61013481610360565b50565b600080516020611037833981519152600301546001600160a01b031633146101ae577fc8fcad8db84d3cc18b4c41d551ea0ee66dd599cde068d998e57d5e09332c131f54604051600162bed83560e01b031981523360048201526001600160a01b0390911660248201526044015b60405180910390fd5b565b60005b83518110156103155760008482815181106101d0576101d0610d92565b602002602001015160400151905060008583815181106101f2576101f2610d92565b6020026020010151600001519050815160000361022d5760405163e767f91f60e01b81526001600160a01b03821660048201526024016101a5565b600086848151811061024157610241610d92565b60200260200101516020015190506000600281111561026257610262610da8565b81600281111561027457610274610da8565b036102885761028382846103e3565b6102ff565b600181600281111561029c5761029c610da8565b036102ab576102838284610597565b60028160028111156102bf576102bf610da8565b036102ce57610283828461070c565b8060028111156102e0576102e0610da8565b604051633ff4d20f60e11b815260ff90911660048201526024016101a5565b505050808061030d90610dd4565b9150506101b3565b507f8faa70878671ccd212d20771b795c50af8fd3ff6cf27f4bde57e5d4de0aeb67383838360405161034993929190610e3d565b60405180910390a161035b8282610993565b505050565b7fc8fcad8db84d3cc18b4c41d551ea0ee66dd599cde068d998e57d5e09332c131f80546001600160a01b031981166001600160a01b03848116918217909355604051600080516020611037833981519152939092169182907f8be0079c531659141344cd1fd0a4f28419497f9722a3daafe3b4186f6b6457e090600090a3505050565b6001600160a01b03821661040c57806040516302b8da0760e21b81526004016101a59190610f3d565b7fc8fcad8db84d3cc18b4c41d551ea0ee66dd599cde068d998e57d5e09332c131d54604080516060810190915260248082526000805160206110378339815191529291610463918691906110576020830139610a59565b60005b83518110156100e457600084828151811061048357610483610d92565b6020908102919091018101516001600160e01b031981166000908152918690526040909120549091506001600160a01b031680156104d6578160405163ebbf5d0760e01b81526004016101a59190610f8b565b6040805180820182526001600160a01b03808a16825261ffff80881660208085019182526001600160e01b0319881660009081528b8252958620945185549251909316600160a01b026001600160b01b0319909216929093169190911717909155600180880180549182018155835291206008820401805460e085901c60046007909416939093026101000a92830263ffffffff90930219169190911790558361057f81610fa0565b9450505050808061058f90610dd4565b915050610466565b6000805160206110378339815191526001600160a01b0383166105cf578160405163cd98a96f60e01b81526004016101a59190610f3d565b6105f1836040518060600160405280602881526020016110a360289139610a59565b60005b825181101561070657600083828151811061061157610611610d92565b6020908102919091018101516001600160e01b031981166000908152918590526040909120549091506001600160a01b03163081036106655781604051632901806d60e11b81526004016101a59190610f8b565b856001600160a01b0316816001600160a01b0316036106995781604051631ac6ce8d60e11b81526004016101a59190610f8b565b6001600160a01b0381166106c25781604051637479f93960e01b81526004016101a59190610f8b565b506001600160e01b031916600090815260208390526040902080546001600160a01b0319166001600160a01b038616179055806106fe81610dd4565b9150506105f4565b50505050565b7fc8fcad8db84d3cc18b4c41d551ea0ee66dd599cde068d998e57d5e09332c131d54600080516020611037833981519152906001600160a01b038416156107715760405163d091bc8160e01b81526001600160a01b03851660048201526024016101a5565b60005b83518110156100e457600084828151811061079157610791610d92565b6020908102919091018101516001600160e01b0319811660009081528683526040908190208151808301909252546001600160a01b038116808352600160a01b90910461ffff1693820193909352909250906108025781604051637a08a22d60e01b81526004016101a59190610f8b565b8051306001600160a01b03909116036108305781604051630df5fd6160e31b81526004016101a59190610f8b565b8361083a81610fc1565b94505083816020015161ffff161461091857600085600101858154811061086357610863610d92565b90600052602060002090600891828204019190066004029054906101000a900460e01b90508086600101836020015161ffff16815481106108a6576108a6610d92565b600091825260208083206008830401805463ffffffff60079094166004026101000a938402191660e09590951c92909202939093179055838201516001600160e01b03199390931681529087905260409020805461ffff60a01b1916600160a01b61ffff909316929092029190911790555b8460010180548061092b5761092b610fd8565b60008281526020808220600860001990940193840401805463ffffffff600460078716026101000a0219169055919092556001600160e01b0319909316815291859052506040902080546001600160b01b03191690558061098b81610dd4565b915050610774565b6001600160a01b0382166109a5575050565b6109c78260405180606001604052806028815260200161107b60289139610a59565b600080836001600160a01b0316836040516109e29190610fee565b600060405180830381855af49150503d8060008114610a1d576040519150601f19603f3d011682016040523d82523d6000602084013e610a22565b606091505b50915091508161070657805115610a3c5780518082602001fd5b838360405163192105d760e01b81526004016101a592919061100a565b813b600081900361035b57828260405163919834b960e01b81526004016101a592919061100a565b80356001600160a01b0381168114610a9857600080fd5b919050565b60008083601f840112610aaf57600080fd5b50813567ffffffffffffffff811115610ac757600080fd5b602083019150836020828501011115610adf57600080fd5b9250929050565b600080600080600060608688031215610afe57600080fd5b853567ffffffffffffffff80821115610b1657600080fd5b818801915088601f830112610b2a57600080fd5b813581811115610b3957600080fd5b8960208260051b8501011115610b4e57600080fd5b60208301975080965050610b6460208901610a81565b94506040880135915080821115610b7a57600080fd5b50610b8788828901610a9d565b969995985093965092949392505050565b600060208284031215610baa57600080fd5b610bb382610a81565b9392505050565b634e487b7160e01b600052604160045260246000fd5b6040516060810167ffffffffffffffff81118282101715610bf357610bf3610bba565b60405290565b604051601f8201601f1916810167ffffffffffffffff81118282101715610c2257610c22610bba565b604052919050565b600067ffffffffffffffff821115610c4457610c44610bba565b5060051b60200190565b6000610c61610c5c84610c2a565b610bf9565b83815260208082019190600586811b860136811115610c7f57600080fd5b865b81811015610d8557803567ffffffffffffffff80821115610ca25760008081fd5b818a01915060608236031215610cb85760008081fd5b610cc0610bd0565b610cc983610a81565b81528683013560038110610cdd5760008081fd5b8188015260408381013583811115610cf55760008081fd5b939093019236601f850112610d0c57600092508283fd5b83359250610d1c610c5c84610c2a565b83815292871b84018801928881019036851115610d395760008081fd5b948901945b84861015610d6e5785356001600160e01b031981168114610d5f5760008081fd5b82529489019490890190610d3e565b918301919091525088525050948301948301610c81565b5092979650505050505050565b634e487b7160e01b600052603260045260246000fd5b634e487b7160e01b600052602160045260246000fd5b634e487b7160e01b600052601160045260246000fd5b600060018201610de657610de6610dbe565b5060010190565b60005b83811015610e08578181015183820152602001610df0565b50506000910152565b60008151808452610e29816020860160208601610ded565b601f01601f19169290920160200192915050565b60006060808301818452808751808352608092508286019150828160051b8701016020808b0160005b84811015610f0d57898403607f19018652815180516001600160a01b03168552838101518986019060038110610eac57634e487b7160e01b600052602160045260246000fd5b868601526040918201519186018a905281519081905290840190600090898701905b80831015610ef85783516001600160e01b0319168252928601926001929092019190860190610ece565b50978501979550505090820190600101610e66565b50506001600160a01b038a16908801528681036040880152610f2f8189610e11565b9a9950505050505050505050565b6020808252825182820181905260009190848201906040850190845b81811015610f7f5783516001600160e01b03191683529284019291840191600101610f59565b50909695505050505050565b6001600160e01b031991909116815260200190565b600061ffff808316818103610fb757610fb7610dbe565b6001019392505050565b600081610fd057610fd0610dbe565b506000190190565b634e487b7160e01b600052603160045260246000fd5b60008251611000818460208701610ded565b9190910192915050565b6001600160a01b038316815260406020820181905260009061102e90830184610e11565b94935050505056fec8fcad8db84d3cc18b4c41d551ea0ee66dd599cde068d998e57d5e09332c131c4c69624469616d6f6e644375743a2041646420666163657420686173206e6f20636f64654c69624469616d6f6e644375743a205f696e6974206164647265737320686173206e6f20636f64654c69624469616d6f6e644375743a205265706c61636520666163657420686173206e6f20636f6465a264697066735822122028af12eb02892b6dc73372edabd385d9a775481824fb472eb6ca1a30c1573e5c64736f6c63430008110033",
    "linkReferences": {}
  },
  "methodIdentifiers": {
    "changeOwner(address)": "a6f9dae1",
    "diamondCut((address,uint8,bytes4[])[],address,bytes)": "1f931c1c",
    "owner()": "8da5cb5b"
  },
  "id": 2
}