{
  "abi": [
    {
      "inputs": [
        {
          "internalType": "uint8",
          "name": "role",
          "type": "uint8"
        }
      ],
      "name": "CANNOT_SET_USER_ON_RUNTIME_ROLE",
      "type": "error"
    },
    {
      "inputs": [
        {
          "internalType": "uint8",
          "name": "role",
          "type": "uint8"
        }
      ],
      "name": "RUNTIME_ROLE_NOT_FOUND",
      "type": "error"
    },
    {
      "anonymous": false,
      "inputs": [
        {
          "indexed": true,
          "internalType": "address",
          "name": "user",
          "type": "address"
        },
        {
          "indexed": true,
          "internalType": "contract Authority",
          "name": "newAuthority",
          "type": "address"
        }
      ],
      "name": "AuthorityUpdated",
      "type": "event"
    },
    {
      "anonymous": false,
      "inputs": [
        {
          "indexed": false,
          "internalType": "address",
          "name": "credential",
          "type": "address"
        }
      ],
      "name": "CredentialDeployed",
      "type": "event"
    },
    {
      "anonymous": false,
      "inputs": [
        {
          "indexed": false,
          "internalType": "uint8",
          "name": "version",
          "type": "uint8"
        }
      ],
      "name": "Initialized",
      "type": "event"
    },
    {
      "anonymous": false,
      "inputs": [
        {
          "indexed": true,
          "internalType": "address",
          "name": "user",
          "type": "address"
        },
        {
          "indexed": true,
          "internalType": "address",
          "name": "newOwner",
          "type": "address"
        }
      ],
      "name": "OwnershipTransferred",
      "type": "event"
    },
    {
      "anonymous": false,
      "inputs": [
        {
          "indexed": false,
          "internalType": "address",
          "name": "pod",
          "type": "address"
        }
      ],
      "name": "PodDeployed",
      "type": "event"
    },
    {
      "inputs": [
        {
          "internalType": "address",
          "name": "user",
          "type": "address"
        },
        {
          "internalType": "address",
          "name": "target",
          "type": "address"
        },
        {
          "internalType": "bytes4",
          "name": "functionSig",
          "type": "bytes4"
        }
      ],
      "name": "canCall",
      "outputs": [
        {
          "internalType": "bool",
          "name": "",
          "type": "bool"
        }
      ],
      "stateMutability": "view",
      "type": "function"
    },
    {
      "inputs": [
        {
          "internalType": "address",
          "name": "",
          "type": "address"
        }
      ],
      "name": "credentials",
      "outputs": [
        {
          "internalType": "bool",
          "name": "",
          "type": "bool"
        }
      ],
      "stateMutability": "view",
      "type": "function"
    },
    {
      "inputs": [
        {
          "internalType": "address",
          "name": "_owner",
          "type": "address"
        },
        {
          "internalType": "address",
          "name": "initAddress",
          "type": "address"
        },
        {
          "internalType": "bytes4",
          "name": "tIdentifier",
          "type": "bytes4"
        },
        {
          "internalType": "bytes",
          "name": "initCalldata",
          "type": "bytes"
        },
        {
          "components": [
            {
              "components": [
                {
                  "internalType": "uint8",
                  "name": "role",
                  "type": "uint8"
                },
                {
                  "internalType": "bool",
                  "name": "enabled",
                  "type": "bool"
                },
                {
                  "internalType": "address",
                  "name": "account",
                  "type": "address"
                }
              ],
              "internalType": "struct AuthStructures.UserRole[]",
              "name": "userRoles",
              "type": "tuple[]"
            },
            {
              "components": [
                {
                  "internalType": "uint8",
                  "name": "role",
                  "type": "uint8"
                },
                {
                  "internalType": "bytes4",
                  "name": "functionSig",
                  "type": "bytes4"
                },
                {
                  "internalType": "bool",
                  "name": "enabled",
                  "type": "bool"
                },
                {
                  "internalType": "address",
                  "name": "target",
                  "type": "address"
                }
              ],
              "internalType": "struct AuthStructures.RoleCapability[]",
              "name": "roleCapabilities",
              "type": "tuple[]"
            },
            {
              "components": [
                {
                  "internalType": "uint8",
                  "name": "role",
                  "type": "uint8"
                },
                {
                  "internalType": "bool",
                  "name": "calldataRequired",
                  "type": "bool"
                },
                {
                  "internalType": "bytes",
                  "name": "_conditionBytes",
                  "type": "bytes"
                }
              ],
              "internalType": "struct AuthStructures.RuntimeRole[]",
              "name": "runtimeRoles",
              "type": "tuple[]"
            },
            {
              "components": [
                {
                  "internalType": "uint8",
                  "name": "role",
                  "type": "uint8"
                },
                {
                  "internalType": "address",
                  "name": "target",
                  "type": "address"
                },
                {
                  "internalType": "bytes4",
                  "name": "functionSig",
                  "type": "bytes4"
                },
                {
                  "internalType": "bool",
                  "name": "enabled",
                  "type": "bool"
                }
              ],
              "internalType": "struct AuthStructures.RuntimeRoleCapability[]",
              "name": "runtimeRoleCapabilities",
              "type": "tuple[]"
            },
            {
              "components": [
                {
                  "internalType": "bytes4",
                  "name": "functionSig",
                  "type": "bytes4"
                },
                {
                  "internalType": "bool",
                  "name": "enabled",
                  "type": "bool"
                },
                {
                  "internalType": "address",
                  "name": "target",
                  "type": "address"
                }
              ],
              "internalType": "struct AuthStructures.PublicCapability[]",
              "name": "publicCapabilities",
              "type": "tuple[]"
            }
          ],
          "internalType": "struct AuthStructures.RuntimeRolesAuthorityStruct",
          "name": "authData",
          "type": "tuple"
        }
      ],
      "name": "deployCredential",
      "outputs": [
        {
          "internalType": "address",
          "name": "",
          "type": "address"
        }
      ],
      "stateMutability": "nonpayable",
      "type": "function"
    },
    {
      "inputs": [
        {
          "internalType": "address",
          "name": "_owner",
          "type": "address"
        },
        {
          "internalType": "address",
          "name": "initAddress",
          "type": "address"
        },
        {
          "internalType": "bytes4[]",
          "name": "fIdentifiers",
          "type": "bytes4[]"
        },
        {
          "internalType": "bytes",
          "name": "initCalldata",
          "type": "bytes"
        },
        {
          "components": [
            {
              "components": [
                {
                  "internalType": "uint8",
                  "name": "role",
                  "type": "uint8"
                },
                {
                  "internalType": "bool",
                  "name": "enabled",
                  "type": "bool"
                },
                {
                  "internalType": "address",
                  "name": "account",
                  "type": "address"
                }
              ],
              "internalType": "struct AuthStructures.UserRole[]",
              "name": "userRoles",
              "type": "tuple[]"
            },
            {
              "components": [
                {
                  "internalType": "uint8",
                  "name": "role",
                  "type": "uint8"
                },
                {
                  "internalType": "bytes4",
                  "name": "functionSig",
                  "type": "bytes4"
                },
                {
                  "internalType": "bool",
                  "name": "enabled",
                  "type": "bool"
                },
                {
                  "internalType": "address",
                  "name": "target",
                  "type": "address"
                }
              ],
              "internalType": "struct AuthStructures.RoleCapability[]",
              "name": "roleCapabilities",
              "type": "tuple[]"
            },
            {
              "components": [
                {
                  "internalType": "uint8",
                  "name": "role",
                  "type": "uint8"
                },
                {
                  "internalType": "bool",
                  "name": "calldataRequired",
                  "type": "bool"
                },
                {
                  "internalType": "bytes",
                  "name": "_conditionBytes",
                  "type": "bytes"
                }
              ],
              "internalType": "struct AuthStructures.RuntimeRole[]",
              "name": "runtimeRoles",
              "type": "tuple[]"
            },
            {
              "components": [
                {
                  "internalType": "uint8",
                  "name": "role",
                  "type": "uint8"
                },
                {
                  "internalType": "address",
                  "name": "target",
                  "type": "address"
                },
                {
                  "internalType": "bytes4",
                  "name": "functionSig",
                  "type": "bytes4"
                },
                {
                  "internalType": "bool",
                  "name": "enabled",
                  "type": "bool"
                }
              ],
              "internalType": "struct AuthStructures.RuntimeRoleCapability[]",
              "name": "runtimeRoleCapabilities",
              "type": "tuple[]"
            },
            {
              "components": [
                {
                  "internalType": "bytes4",
                  "name": "functionSig",
                  "type": "bytes4"
                },
                {
                  "internalType": "bool",
                  "name": "enabled",
                  "type": "bool"
                },
                {
                  "internalType": "address",
                  "name": "target",
                  "type": "address"
                }
              ],
              "internalType": "struct AuthStructures.PublicCapability[]",
              "name": "publicCapabilities",
              "type": "tuple[]"
            }
          ],
          "internalType": "struct AuthStructures.RuntimeRolesAuthorityStruct",
          "name": "authData",
          "type": "tuple"
        }
      ],
      "name": "deployCredential",
      "outputs": [
        {
          "internalType": "address",
          "name": "",
          "type": "address"
        }
      ],
      "stateMutability": "nonpayable",
      "type": "function"
    },
    {
      "inputs": [
        {
          "internalType": "bytes",
          "name": "credentialData",
          "type": "bytes"
        },
        {
          "components": [
            {
              "components": [
                {
                  "internalType": "uint8",
                  "name": "role",
                  "type": "uint8"
                },
                {
                  "internalType": "bool",
                  "name": "enabled",
                  "type": "bool"
                },
                {
                  "internalType": "address",
                  "name": "account",
                  "type": "address"
                }
              ],
              "internalType": "struct AuthStructures.UserRole[]",
              "name": "userRoles",
              "type": "tuple[]"
            },
            {
              "components": [
                {
                  "internalType": "uint8",
                  "name": "role",
                  "type": "uint8"
                },
                {
                  "internalType": "bytes4",
                  "name": "functionSig",
                  "type": "bytes4"
                },
                {
                  "internalType": "bool",
                  "name": "enabled",
                  "type": "bool"
                },
                {
                  "internalType": "address",
                  "name": "target",
                  "type": "address"
                }
              ],
              "internalType": "struct AuthStructures.RoleCapability[]",
              "name": "roleCapabilities",
              "type": "tuple[]"
            },
            {
              "components": [
                {
                  "internalType": "uint8",
                  "name": "role",
                  "type": "uint8"
                },
                {
                  "internalType": "bool",
                  "name": "calldataRequired",
                  "type": "bool"
                },
                {
                  "internalType": "bytes",
                  "name": "_conditionBytes",
                  "type": "bytes"
                }
              ],
              "internalType": "struct AuthStructures.RuntimeRole[]",
              "name": "runtimeRoles",
              "type": "tuple[]"
            },
            {
              "components": [
                {
                  "internalType": "uint8",
                  "name": "role",
                  "type": "uint8"
                },
                {
                  "internalType": "address",
                  "name": "target",
                  "type": "address"
                },
                {
                  "internalType": "bytes4",
                  "name": "functionSig",
                  "type": "bytes4"
                },
                {
                  "internalType": "bool",
                  "name": "enabled",
                  "type": "bool"
                }
              ],
              "internalType": "struct AuthStructures.RuntimeRoleCapability[]",
              "name": "runtimeRoleCapabilities",
              "type": "tuple[]"
            },
            {
              "components": [
                {
                  "internalType": "bytes4",
                  "name": "functionSig",
                  "type": "bytes4"
                },
                {
                  "internalType": "bool",
                  "name": "enabled",
                  "type": "bool"
                },
                {
                  "internalType": "address",
                  "name": "target",
                  "type": "address"
                }
              ],
              "internalType": "struct AuthStructures.PublicCapability[]",
              "name": "publicCapabilities",
              "type": "tuple[]"
            }
          ],
          "internalType": "struct AuthStructures.RuntimeRolesAuthorityStruct",
          "name": "authData",
          "type": "tuple"
        }
      ],
      "name": "deployPod",
      "outputs": [
        {
          "internalType": "address",
          "name": "",
          "type": "address"
        }
      ],
      "stateMutability": "nonpayable",
      "type": "function"
    },
    {
      "inputs": [
        {
          "internalType": "uint8",
          "name": "role",
          "type": "uint8"
        },
        {
          "internalType": "address",
          "name": "target",
          "type": "address"
        },
        {
          "internalType": "bytes4",
          "name": "functionSig",
          "type": "bytes4"
        }
      ],
      "name": "doesRoleHaveCapability",
      "outputs": [
        {
          "internalType": "bool",
          "name": "",
          "type": "bool"
        }
      ],
      "stateMutability": "view",
      "type": "function"
    },
    {
      "inputs": [
        {
          "internalType": "address",
          "name": "user",
          "type": "address"
        },
        {
          "internalType": "uint8",
          "name": "role",
          "type": "uint8"
        }
      ],
      "name": "doesUserHaveRole",
      "outputs": [
        {
          "internalType": "bool",
          "name": "",
          "type": "bool"
        }
      ],
      "stateMutability": "view",
      "type": "function"
    },
    {
      "inputs": [
        {
          "components": [
            {
              "internalType": "address",
              "name": "_owner",
              "type": "address"
            },
            {
              "internalType": "address",
              "name": "parentPod",
              "type": "address"
            },
            {
              "internalType": "address",
              "name": "registryAddress",
              "type": "address"
            },
            {
              "internalType": "address",
              "name": "podFactoryAddress",
              "type": "address"
            },
            {
              "internalType": "address",
              "name": "forwarder",
              "type": "address"
            }
          ],
          "internalType": "struct Pod.PodInit",
          "name": "podInit",
          "type": "tuple"
        },
        {
          "internalType": "bytes",
          "name": "credentialData",
          "type": "bytes"
        },
        {
          "components": [
            {
              "components": [
                {
                  "internalType": "uint8",
                  "name": "role",
                  "type": "uint8"
                },
                {
                  "internalType": "bool",
                  "name": "enabled",
                  "type": "bool"
                },
                {
                  "internalType": "address",
                  "name": "account",
                  "type": "address"
                }
              ],
              "internalType": "struct AuthStructures.UserRole[]",
              "name": "userRoles",
              "type": "tuple[]"
            },
            {
              "components": [
                {
                  "internalType": "uint8",
                  "name": "role",
                  "type": "uint8"
                },
                {
                  "internalType": "bytes4",
                  "name": "functionSig",
                  "type": "bytes4"
                },
                {
                  "internalType": "bool",
                  "name": "enabled",
                  "type": "bool"
                },
                {
                  "internalType": "address",
                  "name": "target",
                  "type": "address"
                }
              ],
              "internalType": "struct AuthStructures.RoleCapability[]",
              "name": "roleCapabilities",
              "type": "tuple[]"
            },
            {
              "components": [
                {
                  "internalType": "uint8",
                  "name": "role",
                  "type": "uint8"
                },
                {
                  "internalType": "bool",
                  "name": "calldataRequired",
                  "type": "bool"
                },
                {
                  "internalType": "bytes",
                  "name": "_conditionBytes",
                  "type": "bytes"
                }
              ],
              "internalType": "struct AuthStructures.RuntimeRole[]",
              "name": "runtimeRoles",
              "type": "tuple[]"
            },
            {
              "components": [
                {
                  "internalType": "uint8",
                  "name": "role",
                  "type": "uint8"
                },
                {
                  "internalType": "address",
                  "name": "target",
                  "type": "address"
                },
                {
                  "internalType": "bytes4",
                  "name": "functionSig",
                  "type": "bytes4"
                },
                {
                  "internalType": "bool",
                  "name": "enabled",
                  "type": "bool"
                }
              ],
              "internalType": "struct AuthStructures.RuntimeRoleCapability[]",
              "name": "runtimeRoleCapabilities",
              "type": "tuple[]"
            },
            {
              "components": [
                {
                  "internalType": "bytes4",
                  "name": "functionSig",
                  "type": "bytes4"
                },
                {
                  "internalType": "bool",
                  "name": "enabled",
                  "type": "bool"
                },
                {
                  "internalType": "address",
                  "name": "target",
                  "type": "address"
                }
              ],
              "internalType": "struct AuthStructures.PublicCapability[]",
              "name": "publicCapabilities",
              "type": "tuple[]"
            }
          ],
          "internalType": "struct AuthStructures.RuntimeRolesAuthorityStruct",
          "name": "authData",
          "type": "tuple"
        }
      ],
      "name": "initialize",
      "outputs": [],
      "stateMutability": "nonpayable",
      "type": "function"
    },
    {
      "inputs": [
        {
          "internalType": "address",
          "name": "target",
          "type": "address"
        },
        {
          "internalType": "bytes4",
          "name": "functionSig",
          "type": "bytes4"
        }
      ],
      "name": "isCapabilityPublic",
      "outputs": [
        {
          "internalType": "bool",
          "name": "",
          "type": "bool"
        }
      ],
      "stateMutability": "view",
      "type": "function"
    },
    {
      "inputs": [
        {
          "internalType": "address",
          "name": "forwarder",
          "type": "address"
        }
      ],
      "name": "isTrustedForwarder",
      "outputs": [
        {
          "internalType": "bool",
          "name": "",
          "type": "bool"
        }
      ],
      "stateMutability": "view",
      "type": "function"
    },
    {
      "inputs": [],
      "name": "owner",
      "outputs": [
        {
          "internalType": "address",
          "name": "",
          "type": "address"
        }
      ],
      "stateMutability": "view",
      "type": "function"
    },
    {
      "inputs": [],
      "name": "parentPod",
      "outputs": [
        {
          "internalType": "address",
          "name": "",
          "type": "address"
        }
      ],
      "stateMutability": "view",
      "type": "function"
    },
    {
      "inputs": [
        {
          "internalType": "address",
          "name": "",
          "type": "address"
        }
      ],
      "name": "pods",
      "outputs": [
        {
          "internalType": "bool",
          "name": "",
          "type": "bool"
        }
      ],
      "stateMutability": "view",
      "type": "function"
    },
    {
      "inputs": [
        {
          "internalType": "contract Authority",
          "name": "newAuthority",
          "type": "address"
        }
      ],
      "name": "setAuthority",
      "outputs": [],
      "stateMutability": "nonpayable",
      "type": "function"
    },
    {
      "inputs": [
        {
          "internalType": "address",
          "name": "target",
          "type": "address"
        },
        {
          "internalType": "bytes4",
          "name": "functionSig",
          "type": "bytes4"
        },
        {
          "internalType": "bool",
          "name": "enabled",
          "type": "bool"
        }
      ],
      "name": "setPublicCapability",
      "outputs": [],
      "stateMutability": "nonpayable",
      "type": "function"
    },
    {
      "inputs": [
        {
          "internalType": "uint8",
          "name": "role",
          "type": "uint8"
        },
        {
          "internalType": "address",
          "name": "target",
          "type": "address"
        },
        {
          "internalType": "bytes4",
          "name": "functionSig",
          "type": "bytes4"
        },
        {
          "internalType": "bool",
          "name": "enabled",
          "type": "bool"
        }
      ],
      "name": "setRoleCapability",
      "outputs": [],
      "stateMutability": "nonpayable",
      "type": "function"
    },
    {
      "inputs": [
        {
          "internalType": "uint8",
          "name": "role",
          "type": "uint8"
        },
        {
          "internalType": "address",
          "name": "target",
          "type": "address"
        },
        {
          "internalType": "bytes4",
          "name": "functionSig",
          "type": "bytes4"
        },
        {
          "internalType": "bool",
          "name": "enabled",
          "type": "bool"
        }
      ],
      "name": "setRuntimeRoleCapability",
      "outputs": [],
      "stateMutability": "nonpayable",
      "type": "function"
    },
    {
      "inputs": [
        {
          "internalType": "address",
          "name": "user",
          "type": "address"
        },
        {
          "internalType": "uint8",
          "name": "role",
          "type": "uint8"
        },
        {
          "internalType": "bool",
          "name": "enabled",
          "type": "bool"
        }
      ],
      "name": "setUserRole",
      "outputs": [],
      "stateMutability": "nonpayable",
      "type": "function"
    },
    {
      "inputs": [
        {
          "internalType": "uint8",
          "name": "role",
          "type": "uint8"
        },
        {
          "internalType": "bool",
          "name": "calldataRequired",
          "type": "bool"
        },
        {
          "internalType": "bytes",
          "name": "_conditionBytes",
          "type": "bytes"
        }
      ],
      "name": "setupRole",
      "outputs": [],
      "stateMutability": "nonpayable",
      "type": "function"
    },
    {
      "inputs": [],
      "name": "totalCredentials",
      "outputs": [
        {
          "internalType": "uint256",
          "name": "",
          "type": "uint256"
        }
      ],
      "stateMutability": "view",
      "type": "function"
    },
    {
      "inputs": [
        {
          "internalType": "address",
          "name": "newOwner",
          "type": "address"
        }
      ],
      "name": "transferOwnership",
      "outputs": [],
      "stateMutability": "nonpayable",
      "type": "function"
    }
  ],
  "bytecode": {
    "object": "0x608060405234801561001057600080fd5b50615642806100206000396000f3fe60806040523480156200001157600080fd5b5060043610620001515760003560e01c80637d40583d11620000c7578063bf918d031162000086578063bf918d0314620002f6578063c6b0263e146200030d578063e12fefe11462000324578063ea7ca276146200033b578063f2fde38b1462000352578063f55f545c146200036957600080fd5b80637d40583d146200027a57806389a8eedd14620002915780638da5cb5b14620002a8578063b4bad06a14620002c8578063b700961314620002df57600080fd5b806334ffaa19116200011457806334ffaa1914620001f8578063572b6c05146200020f5780636016dd4a146200022657806367aff484146200024c5780637a9e5e4b146200026357600080fd5b806302e1be7e146200015657806310686358146200018a5780631513d62b146200019e5780632a067ae414620001b75780632f47571f14620001d0575b600080fd5b6200016d6200016736600462002778565b6200038f565b6040516001600160a01b0390911681526020015b60405180910390f35b6002546200016d906001600160a01b031681565b620001a860055481565b60405190815260200162000181565b620001ce620001c836600462002820565b620007b5565b005b620001e7620001e136600462002883565b6200080b565b604051901515815260200162000181565b6200016d620002093660046200290c565b62000862565b620001e76200022036600462002a04565b62000c44565b620001e76200023736600462002a04565b60036020526000908152604090205460ff1681565b620001ce6200025d36600462002a24565b62000c93565b620001ce6200027436600462002a04565b62000ce7565b620001ce6200028b36600462002820565b62000e19565b620001ce620002a236600462002a74565b62000e68565b600080516020620055cd833981519152546001600160a01b03166200016d565b620001e7620002d936600462002adb565b62000eb6565b620001e7620002f036600462002b20565b62000f15565b6200016d6200030736600462002b5c565b6200106a565b620001ce6200031e36600462002bc6565b62001197565b620001ce6200033536600462002bfb565b620011e5565b620001e76200034c36600462002c7e565b6200153a565b620001ce6200036336600462002a04565b620015bc565b620001e76200037a36600462002a04565b60046020526000908152604090205460ff1681565b60006200039b6200166c565b620003b3816000356001600160e01b03191662001691565b620003db5760405162461bcd60e51b8152600401620003d29062002cb8565b60405180910390fd5b600080546040516312666a6560e11b8152620100009091046001600160a01b0316906324ccd4ca906200041390899060040162002cde565b600060405180830381865afa15801562000431573d6000803e3d6000fd5b505050506040513d6000823e601f3d908101601f191682016040526200045b919081019062002d93565b905060008160000151516001600160401b038111156200047f576200047f62002104565b604051908082528060200260200182016040528015620004ce57816020015b604080516060808201835260008083526020830152918101919091528152602001906001900390816200049e5790505b50905060005b81518110156200066257600083600001518281518110620004f957620004f962002e7e565b602090810291909101015160408051606081019182905260005463112b6a6760e01b90925291925081906201000090046001600160a01b031663112b6a6762000546856064850162002cde565b600060405180830381865afa15801562000564573d6000803e3d6000fd5b505050506040513d6000823e601f3d908101601f191682016040526200058e919081019062002e94565b516001600160a01b031681526020016000815260005460405163112b6a6760e01b8152602090920191620100009091046001600160a01b03169063112b6a6790620005de90869060040162002cde565b600060405180830381865afa158015620005fc573d6000803e3d6000fd5b505050506040513d6000823e601f3d908101601f1916820160405262000626919081019062002e94565b6020015181525083838151811062000642576200064262002e7e565b602002602001018190525050806200065a9062002f36565b9050620004d4565b50604080516060810182523081526001600160a01b038a1660208201528082018890529051600090839083906200069990620020c6565b620006a692919062002fc3565b604051809103906000f080158015620006c3573d6000803e3d6000fd5b5060405163a6f9dae160e01b81526001600160a01b038d811660048301529192509082169063a6f9dae190602401600060405180830381600087803b1580156200070c57600080fd5b505af115801562000721573d6000803e3d6000fd5b50505050620007308762001771565b6040516001600160a01b03821681527fce0000b2b00e2d83d8e900c3eabe649e23aba6114da330da52ccb1136e59dde09060200160405180910390a1600580549060006200077e8362002f36565b90915550506001600160a01b0381166000908152600360205260409020805460ff1916600117905594505050505095945050505050565b620007bf6200166c565b620007d7816000356001600160e01b03191662001691565b620007f65760405162461bcd60e51b8152600401620003d29062002cb8565b620008048585858562001adb565b5050505050565b6001600160a01b03821660009081527f8fc5abaac23e696f526105a9c51dd2a0f5b76e8a48d9a91997a78806d6faf6b9602090815260408083206001600160e01b03198516845290915290205460ff165b92915050565b60006200086e6200166c565b62000886816000356001600160e01b03191662001691565b620008a55760405162461bcd60e51b8152600401620003d29062002cb8565b6000866001600160401b03811115620008c257620008c262002104565b6040519080825280602002602001820160405280156200091157816020015b60408051606080820183526000808352602083015291810191909152815260200190600190039081620008e15790505b50905060005b8781101562000aac57600089898381811062000937576200093762002e7e565b90506020020160208101906200094e9190620030b8565b60408051606081019182905260005463112b6a6760e01b90925291925081906201000090046001600160a01b031663112b6a6762000990856064850162002cde565b600060405180830381865afa158015620009ae573d6000803e3d6000fd5b505050506040513d6000823e601f3d908101601f19168201604052620009d8919081019062002e94565b516001600160a01b031681526020016000815260005460405163112b6a6760e01b8152602090920191620100009091046001600160a01b03169063112b6a679062000a2890869060040162002cde565b600060405180830381865afa15801562000a46573d6000803e3d6000fd5b505050506040513d6000823e601f3d908101601f1916820160405262000a70919081019062002e94565b6020015181525083838151811062000a8c5762000a8c62002e7e565b6020026020010181905250508062000aa49062002f36565b905062000917565b5060006040518060600160405280306001600160a01b031681526020018b6001600160a01b0316815260200188888080601f016020809104026020016040519081016040528093929190818152602001838380828437600092018290525093909452505060405192935091849150839062000b2790620020c6565b62000b3492919062002fc3565b604051809103906000f08015801562000b51573d6000803e3d6000fd5b5060405163a6f9dae160e01b81526001600160a01b038e811660048301529192509082169063a6f9dae190602401600060405180830381600087803b15801562000b9a57600080fd5b505af115801562000baf573d6000803e3d6000fd5b5050505062000bbe8662001771565b6040516001600160a01b03821681527fce0000b2b00e2d83d8e900c3eabe649e23aba6114da330da52ccb1136e59dde09060200160405180910390a16005805490600062000c0c8362002f36565b90915550506001600160a01b0381166000908152600360205260409020805460ff191660011790559350505050979650505050505050565b600062000c787f398ea0e66f9fdfc7e149e6f9b371bf8fa637c4f2b84b48755ae54f118b2023b2546001600160a01b031690565b6001600160a01b0316826001600160a01b0316149050919050565b62000c9d6200166c565b62000cb5816000356001600160e01b03191662001691565b62000cd45760405162461bcd60e51b8152600401620003d29062002cb8565b62000ce184848462001b83565b50505050565b600080516020620055cd83398151915280546001600160a01b031662000d0c6200166c565b6001600160a01b0316148062000dac575060018101546001600160a01b031663b700961362000d3a6200166c565b306000356001600160e01b0319166040518463ffffffff1660e01b815260040162000d6893929190620030d8565b602060405180830381865afa15801562000d86573d6000803e3d6000fd5b505050506040513d601f19601f8201168201806040525081019062000dac919062003105565b62000db657600080fd5b6001810180546001600160a01b0319166001600160a01b03841690811790915562000de06200166c565b6001600160a01b03167fa3396fd7f6e0a21b50e5089d2da70d5ac0a3bbbd1f617a93f134b7638998019860405160405180910390a35050565b62000e236200166c565b62000e3b816000356001600160e01b03191662001691565b62000e5a5760405162461bcd60e51b8152600401620003d29062002cb8565b620008048585858562001c89565b62000e726200166c565b62000e8a816000356001600160e01b03191662001691565b62000ea95760405162461bcd60e51b8152600401620003d29062002cb8565b62000ce184848462001d70565b6001600160a01b03821660009081527f8fc5abaac23e696f526105a9c51dd2a0f5b76e8a48d9a91997a78806d6faf6ba602090815260408083206001600160e01b03198516845290915290205460ff84161c60011615155b9392505050565b6001600160a01b03821660009081527f8fc5abaac23e696f526105a9c51dd2a0f5b76e8a48d9a91997a78806d6faf6bb602090815260408083206001600160e01b03198516845282528083205460ff9081168452600080516020620055ad833981519152909252822054600080516020620055ed83398151915291610100909104161562000fe6576001600160a01b038416600090815260038201602090815260408083206001600160e01b03198716845290915290205462000fdd90869060ff1662001e01565b91505062000f0e565b6001600160a01b038416600090815260018201602090815260408083206001600160e01b03198716845290915290205460ff16806200106157506001600160a01b03808516600090815260028301602090815260408083206001600160e01b0319881684528252808320549389168352908490529020541615155b95945050505050565b6000620010766200166c565b6200108e816000356001600160e01b03191662001691565b620010ad5760405162461bcd60e51b8152600401620003d29062002cb8565b6001546000906001600160a01b0316636dee207c620010cb6200166c565b3088886040518563ffffffff1660e01b8152600401620010ef9493929190620034b7565b6020604051808303816000875af11580156200110f573d6000803e3d6000fd5b505050506040513d601f19601f820116820180604052508101906200113591906200360a565b6001600160a01b038116600081815260046020908152604091829020805460ff1916600117905590519182529192507f06433e1fac3b4ef39c0dbf52c5600a16bc329245c8bcee76c10604344b00c5e0910160405180910390a1949350505050565b620011a16200166c565b620011b9816000356001600160e01b03191662001691565b620011d85760405162461bcd60e51b8152600401620003d29062002cb8565b62000ce184848462001ebb565b600054610100900460ff1615808015620012065750600054600160ff909116105b80620012225750303b15801562001222575060005460ff166001145b620012875760405162461bcd60e51b815260206004820152602e60248201527f496e697469616c697a61626c653a20636f6e747261637420697320616c72656160448201526d191e481a5b9a5d1a585b1a5e995960921b6064820152608401620003d2565b6000805460ff191660011790558015620012ab576000805461ff0019166101001790555b620012b7853062001f60565b8215620014d85760008080620012d0868801886200362a565b92509250925060006040518060a0016040528060006001600160401b03811115620012ff57620012ff62002104565b6040519080825280602002602001820160405280156200134c57816020015b60408051606081018252600080825260208083018290529282015282526000199092019101816200131e5790505b5081526020016000604051908082528060200260200182016040528015620013a857816020015b604080516080810182526000808252602080830182905292820181905260608201528252600019909201910181620013735790505b5081526020016000604051908082528060200260200182016040528015620013ff57816020015b60408051606080820183526000808352602083015291810191909152815260200190600190039081620013cf5790505b50815260200160006040519080825280602002602001820160405280156200145b57816020015b604080516080810182526000808252602080830182905292820181905260608201528252600019909201910181620014265790505b5081526020016000604051908082528060200260200182016040528015620014b057816020015b6040805160608101825260008082526020808301829052928201528252600019909201910181620014825790505b5090529050620014d2620014c860208b018b62002a04565b858585856200038f565b50505050505b620014ed620014e7836200365f565b62001771565b801562000804576000805461ff0019169055604051600181527f7f26b83ff96e1f2b6a682f133852f6798a09c465da95921460cefb38474024989060200160405180910390a15050505050565b60ff8181166000908152600080516020620055ad83398151915260205260408120549091600080516020620055ed8339815191529161010090041615620015905762001587848462001e01565b9150506200085c565b6001600160a01b0393909316600090815260209390935250604090912054600160ff9092161c16151590565b620015c66200166c565b620015de816000356001600160e01b03191662001691565b620015fd5760405162461bcd60e51b8152600401620003d29062002cb8565b600080516020620055cd83398151915280546001600160a01b0319166001600160a01b0384169081178255620016326200166c565b6001600160a01b03167f8be0079c531659141344cd1fd0a4f28419497f9722a3daafe3b4186f6b6457e060405160405180910390a3505050565b6000620016793362000c44565b156200168c575060131936013560601c90565b503390565b7f9079c5d02cb0fd649c0db84a16db0594bf672e27fad9d82f64a415fae28f7ca454600090600080516020620055cd833981519152906001600160a01b0316801580159062001751575060405163b700961360e01b81526001600160a01b0382169063b7009613906200170d90889030908990600401620030d8565b602060405180830381865afa1580156200172b573d6000803e3d6000fd5b505050506040513d601f19601f8201168201806040525081019062001751919062003105565b8062001061575081546001600160a01b0386811691161495945050505050565b60005b8151518110156200180d57620017f8826000015182815181106200179c576200179c62002e7e565b60200260200101516040015183600001518381518110620017c157620017c162002e7e565b60200260200101516000015184600001518481518110620017e657620017e662002e7e565b60200260200101516020015162001b83565b80620018048162002f36565b91505062001774565b5060005b816020015151811015620018d257620018bd826020015182815181106200183c576200183c62002e7e565b6020026020010151600001518360200151838151811062001861576200186162002e7e565b6020026020010151606001518460200151848151811062001886576200188662002e7e565b60200260200101516020015185602001518581518110620018ab57620018ab62002e7e565b60200260200101516040015162001c89565b80620018c98162002f36565b91505062001811565b5060005b81604001515181101562001972576200195d8260400151828151811062001901576200190162002e7e565b6020026020010151600001518360400151838151811062001926576200192662002e7e565b602002602001015160200151846040015184815181106200194b576200194b62002e7e565b60200260200101516040015162001d70565b80620019698162002f36565b915050620018d6565b5060005b81606001515181101562001a375762001a2282606001518281518110620019a157620019a162002e7e565b60200260200101516000015183606001518381518110620019c657620019c662002e7e565b60200260200101516020015184606001518481518110620019eb57620019eb62002e7e565b6020026020010151604001518560600151858151811062001a105762001a1062002e7e565b60200260200101516060015162001adb565b8062001a2e8162002f36565b91505062001976565b5060005b81608001515181101562001ad75762001ac28260800151828151811062001a665762001a6662002e7e565b6020026020010151604001518360800151838151811062001a8b5762001a8b62002e7e565b6020026020010151600001518460800151848151811062001ab05762001ab062002e7e565b60200260200101516020015162001ebb565b8062001ace8162002f36565b91505062001a3b565b5050565b60ff8481166000908152600080516020620055ad8339815191526020526040902054600080516020620055ed833981519152916101009091041662001b3957604051635d1d85eb60e11b815260ff86166004820152602401620003d2565b6001600160a01b038416600090815260038201602090815260408083206001600160e01b0319871684529091529020805460ff191660ff8716179055620008048585858562001c89565b60ff8281166000908152600080516020620055ad8339815191526020526040902054600080516020620055ed83398151915291610100909104161562001be25760405163460e270960e01b815260ff84166004820152602401620003d2565b811562001c13576001600160a01b03841660009081526020829052604090208054600160ff86161b17905562001c39565b6001600160a01b03841660009081526020829052604090208054600160ff86161b191690555b8260ff16846001600160a01b03167f4c9bdd0c8e073eb5eda2250b18d8e5121ff27b62064fbeeeed4869bb99bc5bf28460405162001c7b911515815260200190565b60405180910390a350505050565b600080516020620055ed833981519152811562001ce1576001600160a01b038416600090815260028201602090815260408083206001600160e01b03198716845290915290208054600160ff88161b17905562001d1e565b6001600160a01b038416600090815260028201602090815260408083206001600160e01b03198716845290915290208054600160ff88161b191690555b826001600160e01b0319168560ff167fbfe16b2c35ce23dfd1ab0e7b5d086a10060c9b52d1574e1680c881b3b3a2b1518460405162001d61911515815260200190565b60405180910390a35050505050565b6040805160608101825283151581526001602080830182815283850186815260ff89166000908152600080516020620055ad8339815191529093529490912083518154925161ffff1990931690151561ff00191617610100921515929092029190911781559251600080516020620055ed833981519152939182019062001df89082620036f6565b50505050505050565b60ff81166000908152600080516020620055ad83398151915260205260408082209051638e49f03b60e01b8152600080516020620055ed8339815191529173__$47e0b5efe10fcc831d933a4faeaf472e5c$__91638e49f03b9162001e6f91889160010190600401620037c2565b602060405180830381865af415801562001e8d573d6000803e3d6000fd5b505050506040513d601f19601f8201168201806040525081019062001eb3919062003105565b949350505050565b6001600160a01b03831660009081527f8fc5abaac23e696f526105a9c51dd2a0f5b76e8a48d9a91997a78806d6faf6b9602090815260408083206001600160e01b0319861680855290835292819020805460ff191685151590811790915581519081529051600080516020620055ed83398151915293927f36d28126bef21a4f3765d7fcb7c45cead463ae4c41094ef3b771ede598544103928290030190a250505050565b62001f72606083016040840162002a04565b600080546001600160a01b0392909216620100000262010000600160b01b031990921691909117905562001fad608083016060840162002a04565b600180546001600160a01b0319166001600160a01b039290921691909117905562001fdf604083016020840162002a04565b600280546001600160a01b0319166001600160a01b03929092169190911790556200206f62002012602084018462002a04565b82600080516020620055cd83398151915280546001600160a01b03199081166001600160a01b03948516179091557f9079c5d02cb0fd649c0db84a16db0594bf672e27fad9d82f64a415fae28f7ca4805490911691909216179055565b62001ad76200208560a084016080850162002a04565b7f398ea0e66f9fdfc7e149e6f9b371bf8fa637c4f2b84b48755ae54f118b2023b280546001600160a01b0319166001600160a01b0392909216919091179055565b611d47806200386683390190565b6001600160a01b0381168114620020ea57600080fd5b50565b6001600160e01b031981168114620020ea57600080fd5b634e487b7160e01b600052604160045260246000fd5b604051606081016001600160401b03811182821017156200213f576200213f62002104565b60405290565b604051608081016001600160401b03811182821017156200213f576200213f62002104565b60405160a081016001600160401b03811182821017156200213f576200213f62002104565b604051601f8201601f191681016001600160401b0381118282101715620021ba57620021ba62002104565b604052919050565b60006001600160401b03821115620021de57620021de62002104565b50601f01601f191660200190565b600082601f830112620021fe57600080fd5b8135620022156200220f82620021c2565b6200218f565b8181528460208386010111156200222b57600080fd5b816020850160208301376000918101602001919091529392505050565b60006001600160401b0382111562002264576200226462002104565b5060051b60200190565b803560ff811681146200228057600080fd5b919050565b8015158114620020ea57600080fd5b600082601f830112620022a657600080fd5b81356020620022b96200220f8362002248565b82815260609283028501820192828201919087851115620022d957600080fd5b8387015b85811015620023445781818a031215620022f75760008081fd5b620023016200211a565b6200230c826200226e565b8152858201356200231d8162002285565b818701526040828101356200233281620020d4565b908201528452928401928101620022dd565b5090979650505050505050565b600082601f8301126200236357600080fd5b81356020620023766200220f8362002248565b82815260079290921b840181019181810190868411156200239657600080fd5b8286015b84811015620024185760808189031215620023b55760008081fd5b620023bf62002145565b620023ca826200226e565b815284820135620023db81620020ed565b81860152604082810135620023f08162002285565b908201526060828101356200240581620020d4565b908201528352918301916080016200239a565b509695505050505050565b600082601f8301126200243557600080fd5b81356020620024486200220f8362002248565b82815260059290921b840181019181810190868411156200246857600080fd5b8286015b84811015620024185780356001600160401b03808211156200248e5760008081fd5b908801906060828b03601f1901811315620024a95760008081fd5b620024b36200211a565b620024c08885016200226e565b8152604080850135620024d38162002285565b828a0152918401359183831115620024eb5760008081fd5b620024fb8d8a85880101620021ec565b9082015286525050509183019183016200246c565b600082601f8301126200252257600080fd5b81356020620025356200220f8362002248565b82815260079290921b840181019181810190868411156200255557600080fd5b8286015b84811015620024185760808189031215620025745760008081fd5b6200257e62002145565b62002589826200226e565b8152848201356200259a81620020d4565b81860152604082810135620025af81620020ed565b90820152606082810135620025c48162002285565b9082015283529183019160800162002559565b600082601f830112620025e957600080fd5b81356020620025fc6200220f8362002248565b828152606092830285018201928282019190878511156200261c57600080fd5b8387015b85811015620023445781818a0312156200263a5760008081fd5b620026446200211a565b81356200265181620020ed565b815281860135620026628162002285565b818701526040828101356200267781620020d4565b90820152845292840192810162002620565b600060a082840312156200269c57600080fd5b620026a66200216a565b905081356001600160401b0380821115620026c057600080fd5b620026ce8583860162002294565b83526020840135915080821115620026e557600080fd5b620026f38583860162002351565b602084015260408401359150808211156200270d57600080fd5b6200271b8583860162002423565b604084015260608401359150808211156200273557600080fd5b620027438583860162002510565b606084015260808401359150808211156200275d57600080fd5b506200276c84828501620025d7565b60808301525092915050565b600080600080600060a086880312156200279157600080fd5b85356200279e81620020d4565b94506020860135620027b081620020d4565b93506040860135620027c281620020ed565b925060608601356001600160401b0380821115620027df57600080fd5b620027ed89838a01620021ec565b935060808801359150808211156200280457600080fd5b50620028138882890162002689565b9150509295509295909350565b600080600080608085870312156200283757600080fd5b62002842856200226e565b935060208501356200285481620020d4565b925060408501356200286681620020ed565b91506060850135620028788162002285565b939692955090935050565b600080604083850312156200289757600080fd5b8235620028a481620020d4565b91506020830135620028b681620020ed565b809150509250929050565b60008083601f840112620028d457600080fd5b5081356001600160401b03811115620028ec57600080fd5b6020830191508360208285010111156200290557600080fd5b9250929050565b600080600080600080600060a0888a0312156200292857600080fd5b87356200293581620020d4565b965060208801356200294781620020d4565b955060408801356001600160401b03808211156200296457600080fd5b818a0191508a601f8301126200297957600080fd5b8135818111156200298957600080fd5b8b60208260051b85010111156200299f57600080fd5b6020830197508096505060608a0135915080821115620029be57600080fd5b620029cc8b838c01620028c1565b909550935060808a0135915080821115620029e657600080fd5b50620029f58a828b0162002689565b91505092959891949750929550565b60006020828403121562002a1757600080fd5b813562000f0e81620020d4565b60008060006060848603121562002a3a57600080fd5b833562002a4781620020d4565b925062002a57602085016200226e565b9150604084013562002a698162002285565b809150509250925092565b60008060006060848603121562002a8a57600080fd5b62002a95846200226e565b9250602084013562002aa78162002285565b915060408401356001600160401b0381111562002ac357600080fd5b62002ad186828701620021ec565b9150509250925092565b60008060006060848603121562002af157600080fd5b62002afc846200226e565b9250602084013562002b0e81620020d4565b9150604084013562002a6981620020ed565b60008060006060848603121562002b3657600080fd5b833562002afc81620020d4565b600060a0828403121562002b5657600080fd5b50919050565b6000806040838503121562002b7057600080fd5b82356001600160401b038082111562002b8857600080fd5b62002b9686838701620021ec565b9350602085013591508082111562002bad57600080fd5b5062002bbc8582860162002b43565b9150509250929050565b60008060006060848603121562002bdc57600080fd5b833562002be981620020d4565b9250602084013562002a5781620020ed565b60008060008060e0858703121562002c1257600080fd5b62002c1e868662002b43565b935060a08501356001600160401b038082111562002c3b57600080fd5b62002c4988838901620028c1565b909550935060c087013591508082111562002c6357600080fd5b5062002c728782880162002b43565b91505092959194509250565b6000806040838503121562002c9257600080fd5b823562002c9f81620020d4565b915062002caf602084016200226e565b90509250929050565b6020808252600c908201526b15539055551213d49256915160a21b604082015260600190565b6001600160e01b031991909116815260200190565b600082601f83011262002d0557600080fd5b8151602062002d186200220f8362002248565b82815260059290921b8401810191818101908684111562002d3857600080fd5b8286015b848110156200241857805162002d5281620020ed565b835291830191830162002d3c565b60005b8381101562002d7d57818101518382015260200162002d63565b50506000910152565b8051620022808162002285565b6000602080838503121562002da757600080fd5b82516001600160401b038082111562002dbf57600080fd5b908401906060828703121562002dd457600080fd5b62002dde6200211a565b82518281111562002dee57600080fd5b62002dfc8882860162002cf3565b825250838301518281111562002e1157600080fd5b83019150601f8201871362002e2557600080fd5b815162002e366200220f82620021c2565b818152888683860101111562002e4b57600080fd5b62002e5c8287830188870162002d60565b828601525062002e6f6040840162002d86565b60408201529695505050505050565b634e487b7160e01b600052603260045260246000fd5b60006020828403121562002ea757600080fd5b81516001600160401b038082111562002ebf57600080fd5b908301906060828603121562002ed457600080fd5b62002ede6200211a565b825162002eeb81620020d4565b815260208301518281111562002f0057600080fd5b62002f0e8782860162002cf3565b6020830152506040830151925062002f268362002285565b6040810192909252509392505050565b60006001820162002f5757634e487b7160e01b600052601160045260246000fd5b5060010190565b6000815180845262002f7881602086016020860162002d60565b601f01601f19169290920160200192915050565b600060018060a01b038083511684528060208401511660208501525060408201516060604085015262001eb3606085018262002f5e565b60006040808301818452808651808352606092508286019150828160051b8701016020808a0160005b848110156200309657898403605f19018652815180516001600160a01b031685528381015188860190600381106200303457634e487b7160e01b600052602160045260246000fd5b868601529089015189860189905280519182905284019060009060808701905b80831015620030805783516001600160e01b031916825292860192600192909201919086019062003054565b5097850197955050509082019060010162002fec565b505087820390880152620030ab818962002f8c565b9998505050505050505050565b600060208284031215620030cb57600080fd5b813562000f0e81620020ed565b6001600160a01b0393841681529190921660208201526001600160e01b0319909116604082015260600190565b6000602082840312156200311857600080fd5b815162000f0e8162002285565b6000808335601e198436030181126200313d57600080fd5b83016020810192503590506001600160401b038111156200315d57600080fd5b6060810236038213156200290557600080fd5b6000808335601e198436030181126200318857600080fd5b83016020810192503590506001600160401b03811115620031a857600080fd5b8060071b36038213156200290557600080fd5b8183526000602080850194508260005b858110156200324a5760ff620031e1836200226e565b16875282820135620031f381620020ed565b6001600160e01b03191687840152604082810135620032128162002285565b1515908801526060828101356200322981620020d4565b6001600160a01b0316908801526080968701969190910190600101620031cb565b509495945050505050565b6000808335601e198436030181126200326d57600080fd5b83016020810192503590506001600160401b038111156200328d57600080fd5b8060051b36038213156200290557600080fd5b81835281816020850137506000828201602090810191909152601f909101601f19169091010190565b81835260006020808501808196508560051b810191508460005b87811015620033a25782840389528135605e198836030181126200330657600080fd5b8701606060ff62003317836200226e565b16865286820135620033298162002285565b15158688015260408281013536849003601e190181126200334957600080fd5b9092018781019290356001600160401b038111156200336757600080fd5b8036038413156200337757600080fd5b82828901526200338b8389018286620032a0565b9c89019c97505050928601925050600101620032e3565b5091979650505050505050565b8183526000602080850194508260005b858110156200324a5760ff620033d5836200226e565b16875282820135620033e781620020d4565b6001600160a01b0316878401526040828101356200340581620020ed565b6001600160e01b03191690880152606082810135620034248162002285565b1515908801526080968701969190910190600101620033bf565b8183526000602080850194508260005b858110156200324a5781356200346481620020ed565b6001600160e01b0319168752818301356200347f8162002285565b1515878401526040828101356200349681620020d4565b6001600160a01b03169088015260609687019691909101906001016200344e565b600060018060a01b0380871683526020818716818501526040608081860152620034e5608086018862002f5e565b60608682038188015260a08201620034fe898a62003125565b60a08552918290529060009060c085015b81831015620035655760ff62003525856200226e565b16815287840135620035378162002285565b151581890152838701356200354c81620020d4565b891681880152928401926001929092019184016200350f565b62003573888d018d62003170565b99509350858103888701526200358b818a86620031bb565b9850505050506200359f8389018962003255565b945082860384840152620035b5868683620032c9565b955050620035c68189018962003170565b945092508185038183015250620035df848484620033af565b9350620035f0608088018862003125565b93509150808403608082015250620030ab8383836200343e565b6000602082840312156200361d57600080fd5b815162000f0e81620020d4565b6000806000606084860312156200364057600080fd5b83356200364d81620020d4565b9250602084013562002aa781620020ed565b60006200085c368362002689565b600181811c908216806200368257607f821691505b60208210810362002b5657634e487b7160e01b600052602260045260246000fd5b601f821115620036f157600081815260208120601f850160051c81016020861015620036cc5750805b601f850160051c820191505b81811015620036ed57828155600101620036d8565b5050505b505050565b81516001600160401b0381111562003712576200371262002104565b6200372a816200372384546200366d565b84620036a3565b602080601f831160018114620037625760008415620037495750858301515b600019600386901b1c1916600185901b178555620036ed565b600085815260208120601f198616915b82811015620037935788860151825594840194600190910190840162003772565b5085821015620037b25787850151600019600388901b60f8161c191681555b5050505050600190811b01905550565b60018060a01b03831681526000602060408184015260008454620037e6816200366d565b80604087015260606001808416600081146200380b5760018114620038265762003856565b60ff1985168984015283151560051b89018301955062003856565b896000528660002060005b858110156200384e5781548b820186015290830190880162003831565b8a0184019650505b5093999850505050505050505056fe608060405260405162001d4738038062001d47833981016040819052620000269162000b87565b6200004081600001516200006860201b620000991760201c565b620000608282602001518360400151620000ec60201b6200011c1760201c565b505062000fa4565b7fc8fcad8db84d3cc18b4c41d551ea0ee66dd599cde068d998e57d5e09332c131f80546001600160a01b031981166001600160a01b0384811691821790935560405160008051602062001c93833981519152939092169182907f8be0079c531659141344cd1fd0a4f28419497f9722a3daafe3b4186f6b6457e090600090a3505050565b60005b83518110156200027e57600084828151811062000110576200011062000d45565b6020026020010151604001519050600085838151811062000135576200013562000d45565b60200260200101516000015190508151600003620001765760405163e767f91f60e01b81526001600160a01b03821660048201526024015b60405180910390fd5b60008684815181106200018d576200018d62000d45565b602002602001015160200151905060006002811115620001b157620001b162000d5b565b816002811115620001c657620001c662000d5b565b03620001de57620001d88284620002cd565b62000265565b6001816002811115620001f557620001f562000d5b565b036200020757620001d8828462000493565b60028160028111156200021e576200021e62000d5b565b036200023057620001d882846200063a565b80600281111562000245576200024562000d5b565b604051633ff4d20f60e11b815260ff90911660048201526024016200016d565b5050508080620002759062000d87565b915050620000ef565b507f8faa70878671ccd212d20771b795c50af8fd3ff6cf27f4bde57e5d4de0aeb673838383604051620002b49392919062000e18565b60405180910390a1620002c88282620008de565b505050565b6001600160a01b038216620002f957806040516302b8da0760e21b81526004016200016d919062000ee8565b60008051602062001cff833981519152546040805160608101909152602480825260008051602062001c938339815191529291620003439186919062001cb36020830139620009b0565b60005b83518110156200048c57600084828151811062000367576200036762000d45565b6020908102919091018101516001600160e01b031981166000908152918690526040909120549091506001600160a01b03168015620003c65760405163ebbf5d0760e01b81526001600160e01b0319831660048201526024016200016d565b6040805180820182526001600160a01b03808a16825261ffff80881660208085019182526001600160e01b0319881660009081528b8252958620945185549251909316600160a01b026001600160b01b0319909216929093169190911717909155600180880180549182018155835291206008820401805460e085901c60046007909416939093026101000a92830263ffffffff909302191691909117905583620004718162000f04565b94505050508080620004839062000d87565b91505062000346565b5050505050565b60008051602062001c938339815191526001600160a01b038316620004cf578160405163cd98a96f60e01b81526004016200016d919062000ee8565b620004f48360405180606001604052806028815260200162001d1f60289139620009b0565b60005b82518110156200063457600083828151811062000518576200051862000d45565b6020908102919091018101516001600160e01b031981166000908152918590526040909120549091506001600160a01b03163081036200057857604051632901806d60e11b81526001600160e01b0319831660048201526024016200016d565b856001600160a01b0316816001600160a01b031603620005b857604051631ac6ce8d60e11b81526001600160e01b0319831660048201526024016200016d565b6001600160a01b038116620005ed57604051637479f93960e01b81526001600160e01b0319831660048201526024016200016d565b506001600160e01b031916600090815260208390526040902080546001600160a01b0319166001600160a01b038616179055806200062b8162000d87565b915050620004f7565b50505050565b60008051602062001cff8339815191525460008051602062001c93833981519152906001600160a01b03841615620006915760405163d091bc8160e01b81526001600160a01b03851660048201526024016200016d565b60005b83518110156200048c576000848281518110620006b557620006b562000d45565b6020908102919091018101516001600160e01b0319811660009081528683526040908190208151808301909252546001600160a01b038116808352600160a01b90910461ffff1693820193909352909250906200073257604051637a08a22d60e01b81526001600160e01b0319831660048201526024016200016d565b8051306001600160a01b03909116036200076c57604051630df5fd6160e31b81526001600160e01b0319831660048201526024016200016d565b83620007788162000f28565b94505083816020015161ffff16146200085d576000856001018581548110620007a557620007a562000d45565b90600052602060002090600891828204019190066004029054906101000a900460e01b90508086600101836020015161ffff1681548110620007eb57620007eb62000d45565b600091825260208083206008830401805463ffffffff60079094166004026101000a938402191660e09590951c92909202939093179055838201516001600160e01b03199390931681529087905260409020805461ffff60a01b1916600160a01b61ffff909316929092029190911790555b8460010180548062000873576200087362000f42565b60008281526020808220600860001990940193840401805463ffffffff600460078716026101000a0219169055919092556001600160e01b0319909316815291859052506040902080546001600160b01b031916905580620008d58162000d87565b91505062000694565b6001600160a01b038216620008f1575050565b620009168260405180606001604052806028815260200162001cd760289139620009b0565b600080836001600160a01b03168360405162000933919062000f58565b600060405180830381855af49150503d806000811462000970576040519150601f19603f3d011682016040523d82523d6000602084013e62000975565b606091505b5091509150816200063457805115620009915780518082602001fd5b838360405163192105d760e01b81526004016200016d92919062000f76565b813b6000819003620002c857828260405163919834b960e01b81526004016200016d92919062000f76565b634e487b7160e01b600052604160045260246000fd5b604051606081016001600160401b038111828210171562000a165762000a16620009db565b60405290565b604051601f8201601f191681016001600160401b038111828210171562000a475762000a47620009db565b604052919050565b60006001600160401b0382111562000a6b5762000a6b620009db565b5060051b60200190565b80516001600160a01b038116811462000a8d57600080fd5b919050565b60005b8381101562000aaf57818101518382015260200162000a95565b50506000910152565b60006060828403121562000acb57600080fd5b62000ad5620009f1565b905062000ae28262000a75565b8152602062000af381840162000a75565b8282015260408301516001600160401b038082111562000b1257600080fd5b818501915085601f83011262000b2757600080fd5b81518181111562000b3c5762000b3c620009db565b62000b50601f8201601f1916850162000a1c565b9150808252868482850101111562000b6757600080fd5b62000b788185840186860162000a92565b50604084015250909392505050565b6000806040838503121562000b9b57600080fd5b82516001600160401b038082111562000bb357600080fd5b818501915085601f83011262000bc857600080fd5b8151602062000be162000bdb8362000a4f565b62000a1c565b82815260059290921b8401810191818101908984111562000c0157600080fd5b8286015b8481101562000d115780518681111562000c1e57600080fd5b87016060818d03601f1901121562000c3557600080fd5b62000c3f620009f1565b62000c4c86830162000a75565b815260408201516003811062000c6157600080fd5b8187015260608201518881111562000c7857600080fd5b8083019250508c603f83011262000c8e57600080fd5b8582015162000ca162000bdb8262000a4f565b81815260059190911b830160400190878101908f83111562000cc257600080fd5b6040850194505b8285101562000cfb5784516001600160e01b03198116811462000ceb57600080fd5b8252938801939088019062000cc9565b6040840152505084525091830191830162000c05565b509188015191965090935050508082111562000d2c57600080fd5b5062000d3b8582860162000ab8565b9150509250929050565b634e487b7160e01b600052603260045260246000fd5b634e487b7160e01b600052602160045260246000fd5b634e487b7160e01b600052601160045260246000fd5b60006001820162000d9c5762000d9c62000d71565b5060010190565b600081518084526020808501945080840160005b8381101562000ddf5781516001600160e01b0319168752958201959082019060010162000db7565b509495945050505050565b6000815180845262000e0481602086016020860162000a92565b601f01601f19169290920160200192915050565b6000606080830181845280875180835260808601915060808160051b87010192506020808a016000805b8481101562000eb657898703607f19018652825180516001600160a01b03168852848101516003811062000e8457634e487b7160e01b84526021600452602484fd5b8886015260409081015190880189905262000ea28989018262000da3565b975050948301949183019160010162000e42565b5050506001600160a01b038916908701525050838103604085015262000edd818662000dea565b979650505050505050565b60208152600062000efd602083018462000da3565b9392505050565b600061ffff80831681810362000f1e5762000f1e62000d71565b6001019392505050565b60008162000f3a5762000f3a62000d71565b506000190190565b634e487b7160e01b600052603160045260246000fd5b6000825162000f6c81846020870162000a92565b9190910192915050565b6001600160a01b038316815260406020820181905260009062000f9c9083018462000dea565b949350505050565b610cdf8062000fb46000396000f3fe60806040523661000b57005b600080356001600160e01b0319168152600080516020610c16833981519152602081905260409091205481906001600160a01b031680610075576000356001600160e01b031916604051630a82dd7360e31b815260040161006c9190610971565b60405180910390fd5b3660008037600080366000845af43d6000803e808015610094573d6000f35b3d6000fd5b7fc8fcad8db84d3cc18b4c41d551ea0ee66dd599cde068d998e57d5e09332c131f80546001600160a01b031981166001600160a01b03848116918217909355604051600080516020610c16833981519152939092169182907f8be0079c531659141344cd1fd0a4f28419497f9722a3daafe3b4186f6b6457e090600090a3505050565b60005b835181101561028157600084828151811061013c5761013c610986565b6020026020010151604001519050600085838151811061015e5761015e610986565b602002602001015160000151905081516000036101995760405163e767f91f60e01b81526001600160a01b038216600482015260240161006c565b60008684815181106101ad576101ad610986565b6020026020010151602001519050600060028111156101ce576101ce61099c565b8160028111156101e0576101e061099c565b036101f4576101ef82846102cc565b61026b565b60018160028111156102085761020861099c565b03610217576101ef8284610487565b600281600281111561022b5761022b61099c565b0361023a576101ef82846105fc565b80600281111561024c5761024c61099c565b604051633ff4d20f60e11b815260ff909116600482015260240161006c565b5050508080610279906109c8565b91505061011f565b507f8faa70878671ccd212d20771b795c50af8fd3ff6cf27f4bde57e5d4de0aeb6738383836040516102b593929190610a31565b60405180910390a16102c78282610883565b505050565b6001600160a01b0382166102f557806040516302b8da0760e21b815260040161006c9190610b31565b7fc8fcad8db84d3cc18b4c41d551ea0ee66dd599cde068d998e57d5e09332c131d5460408051606081019091526024808252600080516020610c16833981519152929161034c91869190610c366020830139610949565b60005b835181101561048057600084828151811061036c5761036c610986565b6020908102919091018101516001600160e01b031981166000908152918690526040909120549091506001600160a01b031680156103bf578160405163ebbf5d0760e01b815260040161006c9190610971565b6040805180820182526001600160a01b03808a16825261ffff80881660208085019182526001600160e01b0319881660009081528b8252958620945185549251909316600160a01b026001600160b01b0319909216929093169190911717909155600180880180549182018155835291206008820401805460e085901c60046007909416939093026101000a92830263ffffffff90930219169190911790558361046881610b7f565b94505050508080610478906109c8565b91505061034f565b5050505050565b600080516020610c168339815191526001600160a01b0383166104bf578160405163cd98a96f60e01b815260040161006c9190610b31565b6104e183604051806060016040528060288152602001610c8260289139610949565b60005b82518110156105f657600083828151811061050157610501610986565b6020908102919091018101516001600160e01b031981166000908152918590526040909120549091506001600160a01b03163081036105555781604051632901806d60e11b815260040161006c9190610971565b856001600160a01b0316816001600160a01b0316036105895781604051631ac6ce8d60e11b815260040161006c9190610971565b6001600160a01b0381166105b25781604051637479f93960e01b815260040161006c9190610971565b506001600160e01b031916600090815260208390526040902080546001600160a01b0319166001600160a01b038616179055806105ee816109c8565b9150506104e4565b50505050565b7fc8fcad8db84d3cc18b4c41d551ea0ee66dd599cde068d998e57d5e09332c131d54600080516020610c16833981519152906001600160a01b038416156106615760405163d091bc8160e01b81526001600160a01b038516600482015260240161006c565b60005b835181101561048057600084828151811061068157610681610986565b6020908102919091018101516001600160e01b0319811660009081528683526040908190208151808301909252546001600160a01b038116808352600160a01b90910461ffff1693820193909352909250906106f25781604051637a08a22d60e01b815260040161006c9190610971565b8051306001600160a01b03909116036107205781604051630df5fd6160e31b815260040161006c9190610971565b8361072a81610ba0565b94505083816020015161ffff161461080857600085600101858154811061075357610753610986565b90600052602060002090600891828204019190066004029054906101000a900460e01b90508086600101836020015161ffff168154811061079657610796610986565b600091825260208083206008830401805463ffffffff60079094166004026101000a938402191660e09590951c92909202939093179055838201516001600160e01b03199390931681529087905260409020805461ffff60a01b1916600160a01b61ffff909316929092029190911790555b8460010180548061081b5761081b610bb7565b60008281526020808220600860001990940193840401805463ffffffff600460078716026101000a0219169055919092556001600160e01b0319909316815291859052506040902080546001600160b01b03191690558061087b816109c8565b915050610664565b6001600160a01b038216610895575050565b6108b782604051806060016040528060288152602001610c5a60289139610949565b600080836001600160a01b0316836040516108d29190610bcd565b600060405180830381855af49150503d806000811461090d576040519150601f19603f3d011682016040523d82523d6000602084013e610912565b606091505b5091509150816105f65780511561092c5780518082602001fd5b838360405163192105d760e01b815260040161006c929190610be9565b813b60008190036102c757828260405163919834b960e01b815260040161006c929190610be9565b6001600160e01b031991909116815260200190565b634e487b7160e01b600052603260045260246000fd5b634e487b7160e01b600052602160045260246000fd5b634e487b7160e01b600052601160045260246000fd5b6000600182016109da576109da6109b2565b5060010190565b60005b838110156109fc5781810151838201526020016109e4565b50506000910152565b60008151808452610a1d8160208601602086016109e1565b601f01601f19169290920160200192915050565b60006060808301818452808751808352608092508286019150828160051b8701016020808b0160005b84811015610b0157898403607f19018652815180516001600160a01b03168552838101518986019060038110610aa057634e487b7160e01b600052602160045260246000fd5b868601526040918201519186018a905281519081905290840190600090898701905b80831015610aec5783516001600160e01b0319168252928601926001929092019190860190610ac2565b50978501979550505090820190600101610a5a565b50506001600160a01b038a16908801528681036040880152610b238189610a05565b9a9950505050505050505050565b6020808252825182820181905260009190848201906040850190845b81811015610b735783516001600160e01b03191683529284019291840191600101610b4d565b50909695505050505050565b600061ffff808316818103610b9657610b966109b2565b6001019392505050565b600081610baf57610baf6109b2565b506000190190565b634e487b7160e01b600052603160045260246000fd5b60008251610bdf8184602087016109e1565b9190910192915050565b6001600160a01b0383168152604060208201819052600090610c0d90830184610a05565b94935050505056fec8fcad8db84d3cc18b4c41d551ea0ee66dd599cde068d998e57d5e09332c131c4c69624469616d6f6e644375743a2041646420666163657420686173206e6f20636f64654c69624469616d6f6e644375743a205f696e6974206164647265737320686173206e6f20636f64654c69624469616d6f6e644375743a205265706c61636520666163657420686173206e6f20636f6465a26469706673582212201c2b12f13ba3ac0ecd303b1626a6f9b0fa026ac7950fcd098ff9a770d52ddaf164736f6c63430008110033c8fcad8db84d3cc18b4c41d551ea0ee66dd599cde068d998e57d5e09332c131c4c69624469616d6f6e644375743a2041646420666163657420686173206e6f20636f64654c69624469616d6f6e644375743a205f696e6974206164647265737320686173206e6f20636f6465c8fcad8db84d3cc18b4c41d551ea0ee66dd599cde068d998e57d5e09332c131d4c69624469616d6f6e644375743a205265706c61636520666163657420686173206e6f20636f64658fc5abaac23e696f526105a9c51dd2a0f5b76e8a48d9a91997a78806d6faf6bc9079c5d02cb0fd649c0db84a16db0594bf672e27fad9d82f64a415fae28f7ca38fc5abaac23e696f526105a9c51dd2a0f5b76e8a48d9a91997a78806d6faf6b8a26469706673582212206865c192ad42d1f7ded2a9958e88da399ee0b1ec7806aad1f694495df63e2d1164736f6c63430008110033",
    "linkReferences": {
      "src/libraries/LibRoleEval.sol": {
        "LibRoleEval": [
          {
            "start": 7777,
            "length": 20
          }
        ]
      }
    }
  },
  "methodIdentifiers": {
    "canCall(address,address,bytes4)": "b7009613",
    "credentials(address)": "6016dd4a",
    "deployCredential(address,address,bytes4,bytes,((uint8,bool,address)[],(uint8,bytes4,bool,address)[],(uint8,bool,bytes)[],(uint8,address,bytes4,bool)[],(bytes4,bool,address)[]))": "02e1be7e",
    "deployCredential(address,address,bytes4[],bytes,((uint8,bool,address)[],(uint8,bytes4,bool,address)[],(uint8,bool,bytes)[],(uint8,address,bytes4,bool)[],(bytes4,bool,address)[]))": "34ffaa19",
    "deployPod(bytes,((uint8,bool,address)[],(uint8,bytes4,bool,address)[],(uint8,bool,bytes)[],(uint8,address,bytes4,bool)[],(bytes4,bool,address)[]))": "bf918d03",
    "doesRoleHaveCapability(uint8,address,bytes4)": "b4bad06a",
    "doesUserHaveRole(address,uint8)": "ea7ca276",
    "initialize((address,address,address,address,address),bytes,((uint8,bool,address)[],(uint8,bytes4,bool,address)[],(uint8,bool,bytes)[],(uint8,address,bytes4,bool)[],(bytes4,bool,address)[]))": "e12fefe1",
    "isCapabilityPublic(address,bytes4)": "2f47571f",
    "isTrustedForwarder(address)": "572b6c05",
    "owner()": "8da5cb5b",
    "parentPod()": "10686358",
    "pods(address)": "f55f545c",
    "setAuthority(address)": "7a9e5e4b",
    "setPublicCapability(address,bytes4,bool)": "c6b0263e",
    "setRoleCapability(uint8,address,bytes4,bool)": "7d40583d",
    "setRuntimeRoleCapability(uint8,address,bytes4,bool)": "2a067ae4",
    "setUserRole(address,uint8,bool)": "67aff484",
    "setupRole(uint8,bool,bytes)": "89a8eedd",
    "totalCredentials()": "1513d62b",
    "transferOwnership(address)": "f2fde38b"
  },
  "id": 62
}